:100000000C9434000C943E000C943E000C943E0082
:100010000C943E000C943E000C943E000C943E0068
:100020000C943E000C943E000C943E000C943E0058
:100030000C943E000C943E000C943E000C943E0048
:100040000C943E000C943E000C943E000C943E0038
:100050000C943E000C943E000C943E000C943E0028
:100060000C943E000C943E0011241FBECFEFD8E04C
:10007000DEBFCDBF0E9440000C9465000C940000D0
:10008000209A50985198589A599A40E951E04899C5
:100090000FC049990DC0289A20E030E0CA010197AD
:1000A000F1F72F5F3F4F283C3105C1F7489BF1CF57
:1000B000289820E030E0CA010197F1F72F5F3F4F09
:0E00C0008EE420323807B9F7E2CFF894FFCF74
:00000001FF
